:100000000C945D000C9485000C9485000C94850084
:100010000C9485000C9485000C9485000C9485004C
:100020000C9485000C9485000C9485000C94A90315
:100030000C9485000C9485000C9485000C9485002C
:100040000C945F030C9485000C942D030C9407030F
:100050000C9485000C9485000C9485000C9485000C
:100060000C9485000C94850000000008000201003B
:100070000003040700000000000000000000000072
:10008000250028002B0000000000240027002A0083
:10009000040404040404040402020202020203032E
:1000A0000303030301020408102040800102040836
:1000B0001020010204081020650411241FBECFEF98
:1000C000D8E0DEBFCDBF11E0A0E0B1E0E4EDF2E1A9
:1000D00002C005900D92A034B107D9F722E0A0E448
:1000E000B1E001C01D92A331B207E1F710E0CDE508
:1000F000D0E004C02197FE010E946707CC35D107EC
:10010000C9F70E94C2040C9468090C94000090E0A6
:10011000FC01EC55FF4F249180579F4FFC018491C7
:10012000882399F090E0880F991FFC01EA57FF4F50
:10013000A591B491FC01E458FF4F859194918FB73C
:10014000F894EC91E22BEC938FBF08958F929F92DD
:10015000AF92BF92FF920F931F93CF93DF93F090D4
:100160000C022BE02F1508F44CC020910E0208E57C
:1001700012E0021B110927FD1395000F111F000F3C
:10018000111F20910D02C8E8D0E0C21BD10927FD44
:10019000D395CC0FDD1FCC0FDD1F4E010D2E000CB3
:1001A000AA08BB089801012E000C440B550B281916
:1001B00039094A095B09DC010E94EB0624EB30E0B7
:1001C00040E050E00E94C106820E931EA41EB51EA0
:1001D0008C169D062CF0E801801691060CF4E401C3
:1001E0002297CC0FDD1F2FB7F8948F2D90E0FC01E4
:1001F000EE0FFF1FE80FF91FE951FE4FD283C183B5
:100200002FBFDF91CF911F910F91FF90BF90AF90C3
:100210009F908F9008950895AF92BF92CF92DF92F2
:10022000EF92FF920F931F93CF93DF936C017B01AB
:100230008B01040F151FEB015E01AE18BF08C0173C
:10024000D10759F06991D601ED91FC910190F081AF
:10025000E02DC6010995892B79F7C501DF91CF9172
:100260001F910F91FF90EF90DF90CF90BF90AF90D4
:100270000895FC01538D448D252F30E0842F90E0AC
:10028000821B930B541710F0CF9608950197089591
:10029000FC01918D828D981761F0A28DAE0FBF2F5A
:1002A000B11D5D968C91928D9F5F9F73928F90E0B0
:1002B00008958FEF9FEF08952FB7F894809146012E
:1002C00090914701A0914801B09149012FBF8093BF
:1002D000520190935301A0935401B09355018AE4C5
:1002E00091E00E94480197FF26C02FB7F8948091B3
:1002F000460190914701A0914801B09149012FBF5B
:1003000040915201509153016091540170915501F7
:10031000841B950BA60BB70B40914E0150914F01DA
:10032000609150017091510184179507A607B70796
:10033000B0F28FEF9FEF0895FC01918D828D981799
:1003400031F0828DE80FF11D858D90E008958FEFDB
:100350009FEF0895FC01918D228D892F90E0805CA4
:100360009F4F821B91098F73992708958AE491E02A
:100370000E94AA0121E0892B09F420E0822F089530
:1003800080E090E0892B29F00E94B60181110C9445
:1003900000000895FC01A48DA80FB92FB11DA35A28
:1003A000BF4F2C91848D90E001968F739927848F95
:1003B000A689B7892C93A089B1898C9183708064B8
:1003C0008C93938D848D981306C00288F389E02D59
:1003D00080818F7D80830895EF92FF920F931F930A
:1003E000CF93DF93EC0181E0888F9B8D8C8D9813E8
:1003F0001AC0E889F989808185FF15C09FB7F894F4
:10040000EE89FF896083E889F9898081837080643F
:1004100080839FBF81E090E0DF91CF911F910F918A
:10042000FF90EF900895F62E0B8D10E00F5F1F4F99
:100430000F731127E02E8C8D8E110CC00FB607FCA8
:10044000FACFE889F989808185FFF5CFCE010E9436
:10045000CA01F1CFEB8DEC0FFD2FF11DE35AFF4FD9
:10046000F0829FB7F8940B8FEA89FB8980818062C4
:10047000CFCFCF93DF93EC01888D8823B9F0AA8981
:10048000BB89E889F9898C9185FD03C0808186FD4F
:100490000DC00FB607FCF7CF8C9185FFF2CF80819E
:1004A00085FFEDCFCE010E94CA01E9CFDF91CF9148
:1004B000089590E0FC01E859FF4F2491FC01EC55B0
:1004C000FF4F3491FC01E057FF4FE491EE23C9F058
:1004D000222339F0233001F1A8F4213019F1223020
:1004E00029F1F0E0EE0FFF1FE458FF4FA591B49102
:1004F0008FB7F894EC91611126C030953E233C9360
:100500008FBF08952730A9F02830C9F0243049F76B
:10051000809180008F7D03C0809180008F778093D1
:100520008000DFCF84B58F7784BDDBCF84B58F7D2E
:10053000FBCF8091B0008F778093B000D2CF8091B5
:10054000B0008F7DF9CF3E2BDACF3FB7F894809182
:10055000420190914301A0914401B091450126B51B
:10056000A89B05C02F3F19F00196A11DB11D3FBFEB
:10057000BA2FA92F982F8827BC01CD01620F711DBA
:10058000811D911D42E0660F771F881F991F4A95B4
:10059000D1F70895FC0124813581232B39F421E022
:1005A000FB018081882349F020E007C08081918190
:1005B0000E94580921E0892BB9F7822F08950F93E3
:1005C0001F93CF93DF93EC0188819981009759F0B5
:1005D0002A813B812617370730F081E0DF91CF91E8
:1005E0001F910F9108958B016F5F7F4F0E949208BA
:1005F000009759F0998388831B830A832C813D815E
:10060000232B59F7FC011082E8CF80E0E7CF1F923F
:100610000F920FB60F9211242F933F934F935F9336
:100620006F937F938F939F93AF93BF93EF93FF93BA
:100630008AE491E00E94CA01FF91EF91BF91AF91CE
:100640009F918F917F916F915F914F913F912F91EA
:100650000F900FBE0F901F9018951F920F920FB61C
:100660000F9211242F938F939F93EF93FF93E09119
:100670005A01F0915B018081E0916001F09161018C
:1006800082FD1BC09081809163018F5F8F732091E9
:100690006401821741F0E0916301F0E0E65BFE4FF8
:1006A000958F80936301FF91EF919F918F912F918F
:1006B0000F900FBE0F901F9018958081F4CF1F925E
:1006C0000F920FB60F9211242F933F938F939F9306
:1006D000AF93BF938091460190914701A09148014B
:1006E000B09149013091410123E0230F2D3758F596
:1006F0000196A11DB11D2093410180934601909365
:100700004701A0934801B093490180914201909123
:100710004301A0914401B09145010196A11DB11D75
:100720008093420190934301A0934401B09345010B
:10073000BF91AF919F918F913F912F910F900FBEDD
:100740000F901F90189526E8230F0296A11DB11D4A
:10075000D2CF1F920F920FB60F9211242F933F9377
:100760004F935F936F937F938F939F93AF93BF93B9
:10077000CF93DF93EF93FF9380914001C0910B02E1
:10078000D0E087FF24C010928500109284008091F1
:1007900040018F5F8093400180914001082E000C42
:1007A000990B8C179D0724F4809140018C30C4F183
:1007B0008091840090918500049680349C4908F4CF
:1007C0007AC08091840090918500049676C08091D3
:1007D0004001082E000C990B8C179D07C4F6E09180
:1007E00040018E2FEE0F990BFC01EE0FFF1FE80F5B
:1007F000F91FE951FE4F808186FFC9CFE09140018A
:100800008E2FEE0F990BFC01EE0FFF1FE80FF91F63
:10081000E951FE4F808160E08F730E945902B7CF8B
:100820002091840030918500E09140018E2FEE0FE1
:10083000990BFC01EE0FFF1FE80FF91FE951FE4F66
:1008400081819281820F931F909389008093880009
:10085000E09140018E2FEE0F990BFC01EE0FFF1F70
:10086000E80FF91FE951FE4F808186FF11C0E0912A
:1008700040018E2FEE0F990BFC01EE0FFF1FE80FCA
:10088000F91FE951FE4F808161E08F730E94590288
:10089000FF91EF91DF91CF91BF91AF919F918F9198
:1008A0007F916F915F914F913F912F910F900FBE6C
:1008B0000F901F90189580E49CE990938900809395
:1008C00088008FEF80934001E3CF10924D0110928A
:1008D0004C0188EE93E0A0E0B0E080934E0190934D
:1008E0004F01A0935001B09351018AE091E09093A1
:1008F0004B0180934A0185EC90E0909357018093DF
:10090000560184EC90E0909359018093580180EC5B
:1009100090E090935B0180935A0181EC90E090937A
:100920005D0180935C0182EC90E090935F01809385
:100930005E0186EC90E090936101809360011092DB
:10094000630110926401109265011092660180911A
:100950000B028C3098F491E0980F90930B028093E7
:100960000C0290E0FC01EE0FFF1FE80FF91FE951A8
:10097000FE4F88EB9BE09283818308958FEF8093F5
:100980000C020895CF93DF93CDB7DEB72E970FB645
:10099000F894DEBF0FBECDBF789484B5826084BD6D
:1009A00084B5816084BD85B5826085BD85B5816073
:1009B00085BD80916E00816080936E0010928100F1
:1009C00080918100826080938100809181008160AC
:1009D000809381008091800081608093800080916D
:1009E000B10084608093B1008091B00081608093F9
:1009F000B00080917A00846080937A0080917A00C0
:100A0000826080937A0080917A00816080937A007E
:100A100080917A00806880937A001092C100809162
:100A20000C028C3008F050C089E00E948700809151
:100A30000C02282F30E0F901EE0FFF1FE20FF31F29
:100A4000E951FE4F9081907C9960908310920D0245
:100A500010920E022CE0622F0E945B07829FB00171
:100A6000112430E020E0AB01420F531FFA01EE0FDA
:100A7000FF1FE40FF51FE951FE4F908196FD16C050
:100A80002F5F3F4F2C30310571F781110FC010924D
:100A9000800082E080938100109285001092840093
:100AA000B19A80916F00826080936F00E0910C0298
:100AB0008E2F90E0FC01EE0FFF1FE80FF91FE951A8
:100AC000FE4F808180648083E0915A01F0915B0148
:100AD00082E08083E0915601F09157011082E0910D
:100AE0005801F09159018FEC808310926201E091DE
:100AF0005E01F0915F0186E08083E0915C01F091FE
:100B00005D01808180618083E0915C01F0915D01F5
:100B1000808188608083E0915C01F0915D0180813B
:100B200080688083E0915C01F0915D0180818F7D20
:100B3000808390E080E00E94A6008DE00E94870004
:100B400090E0E92E90E0F92E8AE491E00E94AA015B
:100B5000181619060CF0B2C018861F821A8619865C
:100B60001C861B8670E060E0CE0107960E94DF02C3
:100B70002F81388581114AC02115310519F0C9012D
:100B80000E94090818861F821C861B861A861986F1
:100B90001A8219821C821B821E821D8270E060E014
:100BA000CE0101960E94DF0229813A81811136C06F
:100BB0002115310519F0C9010E9409081A8219820C
:100BC0001E821D821C821B820E945C0197FD2EC02A
:100BD0008A32910559F18D871E860D811E810F5F26
:100BE0001F4FB801CE0101960E94DF02882361F3F6
:100BF00029813A818D819E81BE01635F7F4F820F83
:100C0000931F0E9461091E830D83DECF1C861B8605
:100C100066E371E0C9010E946109BACF1E821D829C
:100C200066E371E0C9010E946109CECF8F8198858A
:100C3000009709F476C069817A816115710509F41C
:100C40006EC049855A852D813E814217530708F4AD
:100C500066C00E9461098D819E819C878B871E8260
:100C60001D8289819A81009711F00E94090868E12C
:100C700071E0CE0107960E94CA02811111C06EE197
:100C800071E0CE0107960E94CA02811109C067E295
:100C900071E0CE0107960E94CA02882309F452C06F
:100CA00084EB90E00E94A60061E08DE00E94590272
:100CB0008F819885009711F00E9409080E94A50273
:100CC0002B013C0188EE882E83E0982EA12CB12CBC
:100CD0000E94A5026419750986099709683E734048
:100CE00081059105A8F321E0821A9108A108B108B5
:100CF00088EE480E83E0581E611C711C811491041B
:100D0000A104B10429F7E114F10409F41DCF0E94F4
:100D1000B601882309F418CF0E94000015CF0E9465
:100D2000090889819A8198878F838B819C819A8712
:100D300089878D819E819C878B871A8219821C826C
:100D40001B828DCF6DE271E0CE0107960E94CA0230
:100D5000811111C062E371E0CE0107960E94CA02C0
:100D6000811109C067E371E0CE0107960E94CA02B3
:100D7000882309F49DCF90E080E00E94A60060E007
:100D800094CF052E97FB1EF400940E94D80657FDC1
:100D900007D00E942A0707FC03D04EF40C94D80613
:100DA00050954095309521953F4F4F4F5F4F089597
:100DB00090958095709561957F4F8F4F9F4F0895C7
:100DC0000E944C07A59F900DB49F900DA49F800D8D
:100DD000911D11240895B7FF0C94E0060E94E006CF
:100DE000821B930B08952F923F924F925F926F92C6
:100DF0007F928F929F92AF92BF92CF92DF92EF92AB
:100E0000FF920F931F93CF93DF93CDB7DEB7CA1B2B
:100E1000DB0B0FB6F894DEBF0FBECDBF09942A8856
:100E2000398848885F846E847D848C849B84AA84FE
:100E3000B984C884DF80EE80FD800C811B81AA818B
:100E4000B981CE0FD11D0FB6F894DEBF0FBECDBF56
:100E5000ED010895A1E21A2EAA1BBB1BFD010DC0D6
:100E6000AA1FBB1FEE1FFF1FA217B307E407F5075A
:100E700020F0A21BB30BE40BF50B661F771F881F36
:100E8000991F1A9469F760957095809590959B01CC
:100E9000AC01BD01CF010895A29FB001B39FC00175
:100EA000A39F700D811D1124911DB29F700D811D96
:100EB0001124911D0895991B79E004C0991F96177C
:100EC00008F0961B881F7A95C9F780950895EE0F54
:100ED000FF1F0590F491E02D09940F931F93CF937A
:100EE000DF938230910510F482E090E0E0911102EE
:100EF000F091120230E020E0B0E0A0E0309799F4E9
:100F00002115310509F44AC0281B390B243031055D
:100F1000D8F58A819B816115710589F1FB01938365
:100F20008283FE0111C040815181028113814817E3
:100F30005907E0F04817590799F4109761F0129695
:100F40000C93129713961C933296CF01DF91CF9199
:100F50001F910F9108950093110210931202F4CF84
:100F60002115310551F04217530738F0A901DB0173
:100F70009A01BD01DF01F801C1CFEF01F9CF9093D4
:100F8000120280931102CDCFFE01E20FF31F819375
:100F900091932250310939832883D7CF20910F02B2
:100FA00030911002232B41F4209102013091030172
:100FB0003093100220930F02209100013091010123
:100FC0002115310541F42DB73EB7409104015091F0
:100FD0000501241B350BE0910F02F0911002E2177E
:100FE000F307A0F42E1B3F0B2817390778F0AC014C
:100FF0004E5F5F4F2417350748F04E0F5F1F509329
:10100000100240930F02819391939FCFF0E0E0E0B4
:101010009CCFCF93DF930097E9F0FC0132971382C6
:101020001282A0911102B0911202ED0130E020E095
:101030001097A1F420813181820F931F20910F021C
:10104000309110022817390709F061C0F09310029F
:10105000E0930F02DF91CF910895EA01CE17DF07E9
:10106000E8F54A815B819E0141155105B1F7E9011F
:10107000FB83EA8349915991C40FD51FEC17FD07F3
:1010800061F4808191810296840F951FE901998313
:101090008883828193819B838A83F0E0E0E01296CB
:1010A0008D919C9113970097B9F52D913C911197D3
:1010B000CD010296820F931F20910F0230911002F2
:1010C0002817390739F6309751F51092120210920D
:1010D0001102B0931002A0930F02BCCFD383C2833E
:1010E00040815181840F951FC817D90761F44E5F65
:1010F0005F4F88819981480F591F518340838A81AE
:101100009B81938382832115310509F0B0CFF09341
:101110001202E09311029ECFFD01DC01C0CF1382C9
:101120001282D7CFB0E0A0E0E8E9F8E00C94F50631
:101130008C01009751F4CB010E946D078C01C8010E
:10114000CDB7DEB7E0E10C941107FC01E60FF71F05
:101150009C0122503109E217F30708F49DC0D90120
:10116000CD91DC911197C617D70798F0C530D105FE
:1011700030F3CE0104978617970708F3C61BD70BE9
:101180002297C193D1936D937C93CF010E9409085C
:10119000D6CF5B01AC1ABD0A4C018C0E9D1EA091EE
:1011A0001102B0911202512C412CF12CE12C10971C
:1011B00031F580910F02909110028815990509F080
:1011C0005CC04616570608F058C080910001909107
:1011D0000101009741F48DB79EB7409104015091F1
:1011E0000501841B950BE817F90708F055C0F0932B
:1011F0001002E0930F02F90171836083A0CF8D91FB
:101200009C91119712966C90129713967C9013975D
:10121000A815B90559F56C0142E0C40ED11CCA14D9
:10122000DB0420F1AC014A195B09DA01129615972B
:1012300080F06282738251834083D9016D937C93E5
:10124000E114F10471F0D7011396FC93EE93129719
:1012500076CF22968C0F9D1FF90191838083F30135
:10126000EFCFF0931202E093110269CF48165906AE
:1012700008F42C017D01D3019ACFCB010E946D07A8
:101280007C01009749F0AE01B8010E944F09C801E6
:101290000E940908870153CF10E000E050CFFB0106
:1012A000DC0102C001900D9241505040D8F70895E2
:1012B000FB01DC018D91019080190110D9F3990B8C
:1012C0000895FB01DC0101900D920020E1F70895E3
:0412D000F894FFCFC0
:1012D40000001302800000000000EC010C01390141
:1012E4003902AA0148019C01726967687400D98AAD
:1012F400D985D98AD986005269676874006C656695
:1013040074004C65667400D98AD8B3D8A7D8B100E4
:00000001FF
